:020000040800F2
:1000000090100020450100086D13000865130008DA
:100010006913000809020008E91600080000000042
:10002000000000000000000000000000D5130008E0
:100030000D02000800000000A9130008D7130008F3
:100040005F0100085F0100085F0100085F01000810
:100050005F0100085F0100085F0100085F01000800
:100060005F0100085F0100085F0100085F010008F0
:100070005F0100085F0100085F0100085F010008E0
:100080005F0100085F0100085F0100085F010008D0
:100090005F0100085F0100085F0100085F010008C0
:1000A0005F0100085F0100085F0100085F010008B0
:1000B0005F0100085F0100085F0100085F010008A0
:1000C0005F0100085F0100085F0100085F01000890
:1000D0005F0100085F0100085F0100085F01000880
:1000E0005F0100085F0100085F0100085F01000870
:1000F0005F0100085F0100085F0100085F01000860
:100100005F0100085F0100085F0100085F0100084F
:100110005F0100085F0100085F0100085F0100083F
:100120005F0100085F0100085F0100085F0100082F
:10013000DFF80CD000F056F800480047B919000865
:10014000901000200648804706480047FEE7FEE77B
:10015000FEE7FEE7FEE7FEE7FEE7FEE7FEE7FEE777
:100160005D14000831010008D2B201E000F8012B53
:10017000491EFBD270470022F6E710B513460A4627
:1001800004461946FFF7F0FF204610BD10B504469F
:1001900004E00B7800F8013B03B1491C521EF8D271
:1001A000204610BD421C10F8011B0029FBD1801A0B
:1001B0007047034611F8012B00F8012B002AF9D1F2
:1001C0001846704730B505460020034600E05B1C2A
:1001D000934205D2EC5CC85C201A01D1002CF6D108
:1001E00030BD0000064C074D06E0E06840F001031A
:1001F00094E8070098471034AC42F6D3FFF79CFF11
:100200006C2000088C20000800BFFEE7704730B566
:100210000346002400200025156022E000E05B1C5E
:100220001D7815B11D78202DF9D100E05B1C1D78DB
:1002300015B11D78202DF9D01D788DB1641C8C422C
:100240000FD1184603E015686D1C15605B1C1D7806
:1002500015B11D78202DF6D1156805B9002002E0F2
:1002600001E08C42DAD300BF30BD00002DE9F04739
:1002700005468846914601262E48006898BB2E48C0
:100280002C4908602AE02B48006800680768384657
:10029000FFF788FF0446285D202801D0285DC0B9FB
:1002A000224639462846FFF78DFF90B9214800685D
:1002B000006890F90C0000280ADB284601F0BEFB1C
:1002C0001C490968096891F90C10884200D0002681
:1002D00008E018480068406816490860154800683A
:1002E0000028D0D100BF1348006848B146B94A463B
:1002F00012494046FFF74AFF00200E49086016E009
:100300000C48006868B10B48006800682A464946F6
:1003100083684046984706464EB900200549086064
:1003200005E04A4606494046FFF730FF00263046C2
:10033000BDE8F08714000020080000205C1F0008C2
:10034000B41F0008024600200AB900BFFEE709B941
:1003500000BFFEE741B10A6000234B60034B1B68FE
:100360005960024B19600120704700001000002006
:1003700010B54FF0FF300649C86000200861401EEC
:10038000C8600020C86000F0DBF9002010BD00004C
:10039000001002402DE9F847024600240020002505
:1003A0008446002700237BE14FF0010808FA03F49C
:1003B000D1F8008008EA0400A0427DD1DFF8ECA269
:1003C000D1F80480A8EB0A09D0453AD014DCB8F182
:1003D000030F50D009DCB8F1000F31D0B8F1010F94
:1003E0001CD0B8F1020F49D120E0B8F1110F18D09C
:1003F000B8F1120F42D11EE0B9F5881F25D006DCF6
:10040000B9F5803F20D0B9F5801F37D11AE0B9F592
:10041000001F18D0B9F5041F30D117E0D1F80CC077
:100420002DE0D1F80C8008F1040C28E0D1F80C8004
:1004300008F1080C23E0D1F80C8008F10C0C1EE048
:1004400000BF00BF00BF00BF00BF00BFD1F80880E1
:10045000B8F1000F02D14FF0040C0BE0D1F8088086
:10046000B8F1010F03D14FF0080C146102E04FF016
:10047000080C546103E04FF0000C00E000BF00BF27
:10048000FF2801D8904601E002F104084646FF2803
:1004900002D84FEA830803E0A3F108084FEA88086E
:1004A0004746D6F800804FF00F0909FA07F928EA05
:1004B00009080CFA07F900E07AE048EA0908C6F8EA
:1004C0000080D1F8048008F08058B8F1805F6FD1C7
:1004D00000BFDFF8DC81D8F8188048F00108DFF8A9
:1004E000D091C9F81880C846D8F8188008F00108DB
:1004F000CDF8008000BF00BF4FEAB9384FEA93093A
:1005000058F829504FEA83784FEA18794FF00F08CE
:1005100008FA09F825EA0805DFF89881424502D172
:100520004FF0000824E0DFF89081424502D14FF0FF
:1005300001081DE0DFF88481424502D14FF0020836
:1005400016E0DFF87C81424502D14FF003080FE04E
:10055000DFF87081424502D14FF0040808E0DFF86F
:100560006881424502D14FF0050801E04FF00608CE
:100570004FEA83794FEA197908FA09F848EA05053C
:10058000DFF848814FEA930948F82950D1F80480F0
:1005900008F48038B8F5803F0BD1DFF83481D8F803
:1005A000008048EA0008DFF82891C9F800800AE0D6
:1005B00075E0DFF81C81D8F8008028EA0008DFF831
:1005C0001091C9F80080D1F8048008F40038B8F51B
:1005D000003F0ED1DFF8F88008F10408D8F8008059
:1005E00048EA0008DFF8E89009F10409C9F800803A
:1005F0000DE0DFF8DC8008F10408D8F8008028EA74
:100600000008DFF8CC9009F10409C9F80080D1F89E
:10061000048008F48018B8F5801F0ED1DFF8B08090
:1006200008F10808D8F8008048EA0008DFF8A09030
:1006300009F10809C9F800800DE0DFF8948008F19D
:100640000808D8F8008028EA0008DFF8849009F14B
:100650000809C9F80080D1F8048008F40018B8F53A
:10066000001F0ED1DFF8688008F10C08D8F8008070
:1006700048EA0008DFF8589009F10C09C9F8008031
:100680000DE0DFF84C8008F10C08D8F8008028EA6B
:100690000008DFF83C9009F10C09C9F800805B1CE8
:1006A000102BFFF481AEBDE8F887000000001110A8
:1006B0000010024000080140000C01400010014001
:1006C0000014014000180140001C014008000140D6
:1006D000000401400148006870470000000000204D
:1006E00002480068401C0149086070470000002073
:1006F00010B50848006840F0100006490860032063
:1007000000F07EF80F2000F007F800F01AF8002043
:1007100010BD00000020024070B504460748006884
:100720004FF47A71B0FBF1F5284600F0AFFC0022DF
:100730002146501E00F026F8002070BD0400002065
:10074000704710B5032000F05BF8002211466FF0EF
:100750000B0000F017F8002211466FF00A0000F0BD
:1007600011F8002211466FF0090000F00BF800228A
:100770001146101F00F006F800220F21501E00F055
:1007800001F810BD2DE9F05F80460D4616460027A2
:1007900000F0EEFD074639462A46334601F00700D1
:1007A000C0F1070ABAF1040F02D94FF0040A01E0C0
:1007B000C0F1070AD14600F1040ABAF1070F02D2CC
:1007C0004FF0000A01E0A0F1030AD4464FF0010AFD
:1007D0000AFA09FAAAF1010A0AEA020A0AFA0CFA62
:1007E0004FF0010B0BFA0CFBABF1010B0BEA030B07
:1007F0004AEA0B042146404600F0C2FDBDE8F09FE6
:1008000000BF00F00702064B19684FF6FF031940BE
:10081000044B0B4343EA0221014B196000BF7047B0
:100820000CED00E00000FA0500BF00BF00BF00BFF4
:1008300000BFBFF34F8F00BF00BF00BF0948006873
:1008400000F4E06008490843001D0649086000BF45
:1008500000BF00BFBFF34F8F00BF00BF00BF00BF8E
:1008600000BFFDE70CED00E00000FA05F8B5044616
:1008700000260025207800F0010000286BD000271A
:100880004348C06900F0805070B900BF4048C0695B
:1008900040F080503E49C8610846C06900F0805071
:1008A000009000BF00BF01273A48006800F4807044
:1008B000B0B93848006840F4807036490860FFF7E6
:1008C00009FF064606E0FFF705FF801B642801D9F3
:1008D0000320F8BD2F48006800F480700028F2D093
:1008E0002B48006A00F440752DB3A08800F44070D6
:1008F000A84220D02648006A20F4407501202649ED
:100900000860002008602248056205F0010090B1EF
:10091000FFF7E0FE064608E0FFF7DCFE801B41F231
:100920008831884201D90320D3E71948006A00F0D2
:1009300002000028F0D01648006A20F44070616878
:10094000084313490862012F04D10846C06920F00A
:100950008050C86100BF207800F00200022807D153
:100960000B48406820F44040A168084308494860AB
:10097000207800F01000102807D10548406820F4C6
:10098000800061690843024948600020A1E7000037
:1009900000100240007000404004424270B504461E
:1009A0000D4600266248006800F00700A8420ED2FB
:1009B0005F48006820F0070028435D49086008464A
:1009C000006800F00700A84201D0012070BD207827
:1009D00000F00200022807D15648406820F0F000DD
:1009E000A168084353494860207800F001000028BE
:1009F0005DD06068012806D14E48006800F40030E0
:100A000090B90120E2E76068022806D149480068F1
:100A100000F0007040B90120D8E74648006800F0B7
:100A2000020008B90120D1E74248406820F00300E5
:100A3000616808433F494860FFF74CFE064660681E
:100A4000012810D108E0FFF745FE801B41F28831F4
:100A5000884201D90320B9E73648406800F00C000D
:100A60000428F0D123E06068022810D108E0FFF7E5
:100A700031FE801B41F28831884201D90320A5E76D
:100A80002C48406800F00C000828F0D10FE008E086
:100A9000FFF720FE801B41F28831884201D90320F4
:100AA00094E72448406800F00C000028F0D120486A
:100AB000006800F00700A8420ED91D48006820F029
:100AC000070028431A4908600846006800F007003C
:100AD000A84201D0012079E7207800F00400042822
:100AE00007D11448406820F4E060E16808431149E8
:100AF0004860207800F00800082808D10D484068B8
:100B000020F46050216940EAC1000A49486000F0C1
:100B10003DF808494968C1F30311074A515CC840D0
:100B2000064908600F20FFF7F7FD00204EE70000A0
:100B30000020024000100240101E000804000020A7
:100B400001480068704700000400002000B5FFF76E
:100B5000F7FF04494968C1F30221034A515CC840C8
:100B600000BD000000100240201E000800B5FFF785
:100B7000E7FF04494968C1F3C221034A515CC840F8
:100B800000BD000000100240201E0008F0B585B036
:100B90000FF2700C9CE8E01001A8A0E8E0101DA581
:100BA0002D680095002100240022002300201A4D0A
:100BB000696801F00C05FDB1042D02D0082D1AD191
:100BC00001E016481AE001ADC1F38346AB5D01F4C4
:100BD00080355DB1104D6D68C5F340451DF8054089
:100BE0000E4DB5FBF4F505FB03F202E00C4D03FBE3
:100BF00005F2104602E000BF084800BF00BF05B084
:100C0000F0BD000002030405060708090A0B0C0DDD
:100C10000E0F1010010200000010024000127A00B6
:100C200000093D00F8B504460025207800F00100D9
:100C3000002878D0F848406800F00C0004280CD058
:100C4000F548406800F00C00082811D1F2484068CF
:100C500000F48030B0F5803F0AD1EF48006800F41E
:100C6000003000285FD0606800285CD10120F8BD0A
:100C700000BF6068B0F5803F06D1E748006840F4E7
:100C80008030E549086028E0606858B9E2480068AB
:100C900020F48030E04908600846006820F4802095
:100CA00008601AE06068B0F5A02F0BD1DA48006840
:100CB00040F48020D84908600846006840F480303D
:100CC00008600AE0D448006820F48030D249086007
:100CD0000846006820F48020086000BF606888B182
:100CE000FFF7F8FC054606E0FFF7F4FC401B64281C
:100CF00001D90320BBE7C848006800F40030002891
:100D0000F2D010E0FFF7E6FC054606E0FFF7E2FC54
:100D1000401B642801D90320A9E7BF48006800F4FC
:100D200000300028F2D1207800F00200022857D1CC
:100D3000B948406800F00C0050B1B748406800F076
:100D40000C00082818D1B448406800F4803098B9E5
:100D5000B148006800F0020020B12069012801D0EC
:100D6000012084E7AC48006820F0F800616940EA9F
:100D7000C100A949086033E02069E8B10120A74912
:100D80000860FFF7A7FC054606E0FFF7A3FC401B41
:100D9000022801D903206AE79F48006800F002009A
:100DA0000028F2D09C48006820F0F800616940EA11
:100DB000C1009949086013E0002098490860FFF7D6
:100DC00089FC054606E0FFF785FC401B022801D997
:100DD00003204CE79048006800F002000028F2D1A0
:100DE000207800F0080008282DD1A069B8B10120B2
:100DF0008B490860FFF76EFC054606E0FFF76AFCCA
:100E0000401B022801D9032031E78348406A00F0E3
:100E100002000028F2D0012000F0C8FA13E0002000
:100E20007F490860FFF756FC054606E0FFF752FCD5
:100E3000401B022801D9032019E77748406A00F0D7
:100E400002000028F2D1207800F00400042873D1B9
:100E500000267148C06900F0805070B900BF6E482C
:100E6000C06940F080506C49C8610846C06900F014
:100E70008050009000BF00BF01266A48006800F45F
:100E80008070B0B96748006840F4807065490860B8
:100E9000FFF720FC054606E0FFF71CFC401B64281A
:100EA00001D90320E3E65F48006800F48070002861
:100EB000F2D000BFE068012806D15748006A40F030
:100EC00001005549086227E0E06858B95248006AB5
:100ED00020F00100504908620846006A20F0040032
:100EE000086219E0E06805280BD14B48006A40F021
:100EF0000400494908620846006A40F0010008629F
:100F00000AE04548006A20F00100434908620846AB
:100F1000006A20F00400086200BFE068A0B1FFF79B
:100F2000D9FB054609E0FFF7D5FB401B41F28831AC
:100F3000884202D903209AE622E03748006A00F08E
:100F400002000028EFD012E0FFF7C4FB054608E0DE
:100F5000FFF7C0FB401B41F28831884201D90320D2
:100F600085E62D48006A00F002000028F0D1012E2D
:100F700005D12948C06920F080502749C86100BFC9
:100F8000E069C8B32448406800F00C00082860D02D
:100F9000E069022848D1002020490866FFF79AFB43
:100FA000054606E0FFF796FB401B022801D9032007
:100FB0005DE61948006800F000700028F2D1206A50
:100FC000B0F5803F07D11448406820F40030A16894
:100FD000084311494860D4E9080108430E494968AB
:100FE00021F4741108430C49486001200B4908663C
:100FF000FFF770FB054607E02DE0FFF76BFB401B9A
:10100000022801D9032032E60348006800F000708E
:101010000028F2D01FE00000001002400000424211
:10102000800442420070004000200C490866FFF72F
:1010300051FB054606E0FFF74DFB401B022801D996
:10104000032014E60648006800F000700028F2D182
:1010500001E001200BE6002009E60000000042420A
:1010600000100240042808D14FF0E021096941F046
:1010700004014FF0E022116107E04FF0E02109691F
:1010800021F004014FF0E0221161704770B5044671
:101090002546681EB0F1807F01D301200FE0681E55
:1010A0004FF0E02148610F214FF0FF3000F068F968
:1010B00000204FF0E021886107200861002070BD0A
:1010C00010B504460CB9012010BDA06900B100E0C4
:1010D00000BF94F8390028B9002084F83800204671
:1010E00000F028F8242084F839002068C06820F433
:1010F00000502168C860204600F0DCF920680069D3
:1011000020F49040216808612068406920F02A009E
:10111000216848612068C06840F400502168C860B8
:101120000020E063202084F8390084F83A00002091
:10113000CAE7000010B586B004461A492068884204
:101140002ED100BF1848806940F48040164988615C
:101150000846806900F48040019000BF00BF00BFD6
:101160000846806940F0040088610846806900F004
:101170000400019000BF00BF4815029002200390B8
:101180000320059002A90948FFF704F94FF4806095
:10119000029000200390049002A90448FFF7FAF897
:1011A00006B010BD003801400010024000080140A8
:1011B0002DE9F84304460D4616461F464FF0000938
:1011C00094F83A00202860D105B116B90120BDE895
:1011D000F88300BF94F83800012801D10220F6E717
:1011E000012084F8380000BF0020E063222084F84A
:1011F0003A00FFF76FFA8146A685E68539E0E08D73
:10120000401EE085A068B0F5805F1BD14B460022F0
:1012100020212046009700F031FA08B10320D6E7DC
:10122000A846206938B920684068C0F30800A8F8CB
:101230000000AD1C1DE020684068C0B2A8F80000A6
:101240006D1C16E04B46002220212046009700F03E
:1012500015FA08B10320BAE7206920B92068406870
:1012600005F8010B05E02068406800F07F0005F8F4
:10127000010BE08D0028C2D1202084F83A0000BF85
:10128000002084F8380000BFA1E702209FE72DE985
:10129000F84304460D4616461F464FF0000994F8E1
:1012A000390020285CD105B116B90120BDE8F883CA
:1012B00000BF94F83800012801D10220F6E7012090
:1012C00084F8380000BF0020E063212084F8390052
:1012D000FFF700FA8146A684E6842BE0E08C401EEE
:1012E000E084A068B0F5805F16D14B4600228021D3
:1012F0002046009700F0C2F908B10320D6E7A846BF
:10130000B8F80000C0F3080021684860206908B9F7
:10131000AD1C0FE06D1C0DE04B46002280212046E5
:10132000009700F0ABF908B10320BFE715F8010BF7
:1013300021684860E08C0028D0D14B460022402133
:101340002046009700F09AF908B10320AEE720206C
:1013500084F8390000BF002084F8380000BFA5E7FA
:101360000220A3E700BFFEE700BFFEE770470000D2
:1013700002480068C0F30220704700000CED00E056
:1013800010B5002807DA0A07140E054A00F00F030B
:101390001B1FD45403E00A07130E024A135410BD56
:1013A00018ED00E000E400E07047000008B50849CF
:1013B0000968C9084FF47A72B1FBF2F14143009118
:1013C00000BF00BF00994A1E00920029F9D108BD54
:1013D00004000020704710B5FFF782F910BD10B56A
:1013E00096B001200C9000040D9000200E9001207A
:1013F000109002201390C10314914FF4E011159145
:101400000CA8FFF70FFC0F20079002200890002087
:1014100009904FF480600A9000200B90022107A8E9
:10142000FFF7BCFA022001904FF44040039001A85E
:10143000FFF71CFAFFF784FB4FF47A71B0FBF1F46D
:101440002046FFF723FE0420FFF70CFE00220F21A9
:10145000501EFFF797F916B010BD00001148006844
:1014600040F001000F490860084640680E490840F6
:101470000C494860084600680C4908400949086062
:101480000846006820F4802008600846406820F480
:10149000FE0048604FF41F008860C80304490860DC
:1014A00070470000001002400000FFF8FFFFF6FE4A
:1014B00008ED00E02DE9F0410446002520680069B0
:1014C00020F44050E1680843216808612169A06860
:1014D00008436169084305432068C06841F20C6114
:1014E000884328432168C8602068406920F4407020
:1014F000A1690843216848615F49206888425CD13E
:10150000FFF734FB00EBC00101EB001061688900BC
:10151000B0FBF1F6FFF72AFB00EBC00101EB001076
:1015200061688900B0FBF1F06421B0FBF1F000EBE1
:10153000C00101EB0010A6EB8000322101EB00108E
:101540006421B0FBF1F000F0F006FFF70FFB00EBB9
:10155000C00101EB001061688900B0FBF1F064216B
:10156000B0FBF1F006EB0016FFF700FB00EBC0014B
:1015700001EB001061688900B0FBF1F7FFF7F6FAA4
:1015800000EBC00101EB001061688900B0FBF1F0D5
:101590006421B0FBF1F000EBC00101EB0010A7EB00
:1015A0008000322101EB00106421B0FBF1F000F06B
:1015B0000F003044216888605BE0FFF7C7FA00EB5A
:1015C000C00101EB001061688900B0FBF1F6FFF784
:1015D000BDFA00EBC00101EB001061688900B0FBAF
:1015E000F1F06421B0FBF1F000EBC00101EB001061
:1015F000A6EB8000322101EB00106421B0FBF1F07A
:1016000000F0F006FFF7A2FA00EBC00101EB0010BA
:1016100061688900B0FBF1F06421B0FBF1F006EBEA
:101620000016FFF793FA00EBC00101EB00106168B0
:101630008900B0FBF1F7FFF789FA00EBC00101EB7D
:10164000001061688900B0FBF1F06421B0FBF1F09B
:1016500000EBC00101EB0010A7EB8000322101EB91
:1016600000106421B0FBF1F000F00F00304421685D
:101670008860BDE8F0810000003801402DE9F041AC
:1016800004460D4617469846069E21E0701CF8B1A8
:101690002EB1FFF71FF8A0EB0800B04218D9206860
:1016A000C06820F4D0702168C8602068406920F0CC
:1016B000010021684861202084F8390084F83A004C
:1016C00000BF002084F8380000BF0320BDE8F0818F
:1016D000206800682840A84201D1012000E00020D5
:1016E000B842D3D00020F1E700BFFEE70FB4054BAE
:1016F00010B503A9044A029800F02BF810BC5DF85D
:1017000014FB00009D190008400000200FB4084B96
:1017100010B504A902AA039800F01BF8044602A918
:10172000002000F081F8204610BC5DF814FB00009A
:101730002918000802E008C8121F08C1002AFAD1BF
:1017400070477047002001E001C1121F002AFBD141
:1017500070472DE9F84F994692468846054600277E
:1017600006E025280AD051464A4690476D1C7F1C4A
:1017700028780028F5D13846BDE8F88F002315F801
:10178000011F18462E2915D115F8011F04232A29F7
:101790000DD06FF02F022978A1F13004092C09D85F
:1017A00000EB800002EB400008446D1CF3E758F8A2
:1017B000040B6D1C2A78002ADDD0632A07D0732A17
:1017C0000FD0104651464A4690477F1C2AE018F831
:1017D000042B8DF8002000218DF801106E460121A8
:1017E00003E058F8046B4FF0FF315A074FF0000444
:1017F00001D409E0641C84420BDA8C42FADB325DCE
:10180000002AF7D105E0641C8C42FCDB305D002827
:10181000F9D1274404E016F8010B51464A46904797
:10182000641EF8D26D1CA3E70A68531C0B6010708D
:101830007047000010B503A0FFF758FF08A0FFF79E
:1018400055FF10BD4672656552544F5320636F6D4E
:101850006D616E64207365727665722E0D0A0000EC
:1018600074797065202768656C702720746F207606
:101870006965772061206C697374206F66207265DA
:10188000676973746572656420636F6D6D616E6402
:10189000732E0D0A000000002DE9F041ADF5027D28
:1018A000002400274FF4007101A8FEF764FC3748BC
:1018B00000F0F7F9C6B21EB90DF5027DBDE8F08162
:1018C00000BF81A9314800F0D3F9781CC7B29DF858
:1018D00004020A2831D11CB92D492E48FEF769FCB3
:1018E00000BF4FF4007201A92A48FEF7BFFC05466D
:1018F00001A8FEF757FC98B101A8FEF753FC1FFAA8
:1019000080F8414601A800F037FA23480068FEF746
:1019100049FC1FFA80F841461F48006800F02CFA85
:10192000002DDED11B491A48FEF743FC00244FF47A
:1019300000711848FEF71FFC24E09DF804020D28F2
:1019400020D09DF80402082803D09DF804027F28C7
:1019500007D1002C16DD601EC4B200200D490855C9
:1019600010E09DF9040220280CDB9DF904027E287A
:1019700008DCB4F5007F05DA9DF804020549085536
:10198000601CC4B2B7429CDB00BF95E74406002050
:101990004402002044000020741E000813B50C46C9
:1019A0004FF6FF73012269460248FFF770FC00986A
:1019B0001CBD000050080020FEF7DAFCFEF798FE80
:1019C000FFF70DFD00F022F800F0EAF904A207A1EC
:1019D00009A0FFF78BFE01E000F0F0F9FCE7000042
:1019E00031303A34343A3233000000004170722012
:1019F0002033203230313900646174652025732C26
:101A000074696D652025730D0A00000010B5094842
:101A1000094908604FF4E1304860002106488160C0
:101A2000C16001610C21416100218161C161FFF749
:101A300047FB10BD0038014050080020014600203F
:101A400000220AE00B78202B05D1012A04D0431C88
:101A500058B2012200E00022491C0B78002BF1D182
:101A6000012A01D1431E58B2704700002DE9F04110
:101A700006460D4617460E48006810B90D480C4939
:101A800008600B48006800682A4601683046FEF787
:101A90007DFB074800684068054908600846006803
:101AA00008B9002400E001242046BDE8F0810000D0
:101AB00018000020080000202DE9F84306460F46D4
:101AC00090460EB900BFFEE76A4601214046FEF788
:101AD0009EFB05460DB900BFFEE71B48006810B924
:101AE0001A48194908601849096809680868FEF722
:101AF00059FB81461448006800684A460168284638
:101B0000FEF760FB70B91048006800683A4641680B
:101B10003046FEF73BFB002400200B4908602046BE
:101B2000BDE8F8830848006840680749086008462F
:101B3000006830B92A4606A13046FFF7E7FD0024C9
:101B400000E001242046EBE73C00002008000020D4
:101B50002027257327204973204E6F74206120565B
:101B6000616C696420636F6D6D616E64200D0A00A5
:101B700070B504460D4616460CB900BFFEE703A03B
:101B8000FFF7B4FDFEF750FE002070BD7265626F76
:101B90006F74206E6F772E0D0A000000F8B50546B1
:101BA0000F4616460DB900BFFEE76A4601213046D2
:101BB000FEF72DFB04460CB900BFFEE707220EA17D
:101BC0002046FEF7FFFA20B90D490EA0FFF78EFD63
:101BD00010E006220DA12046FEF7F4FA28B90DA068
:101BE000FFF784FDFEF720FE04E022460DA1284603
:101BF000FFF78CFD0020F8BD76657273696F6E008B
:101C0000311E000825730D0A000000007265626F26
:101C10006F7400007265626F6F74206E6F772E0DA7
:101C20000A0000002027257327204973204E6F7477
:101C300020612056616C696420706172616D657409
:101C40006572730D0A00000070B504460D46164615
:101C50000CB900BFFEE7034903A0FFF747FD0020D2
:101C600070BD0000311E000825730D0A0000000041
:101C700030B504460D46204600F02DF878B921898C
:101C80002068405C28702089401C20812089A18820
:101C900090FBF1F201FB12002081012030BD0020F9
:101CA000FCE70146C8880A89904206DAC8888A8813
:101CB00010440A89801A80B27047C8880A89801A3D
:101CC00080B2F9E70146888870470160828000236E
:101CD0000381C380704700B503461846FFF7E1FF54
:101CE00008B9012000BD0020FCE7F0B503460E4610
:101CF00014461846FFF7E6FF07461846FFF7D1FFE0
:101D0000381AA04215DD00250FE016F8010BDA881D
:101D100019688854D888401CD880D888998890FB46
:101D2000F1F201FB1200D8806D1CA542EDDB012011
:101D3000F0BD0020FCE7000010B500BF14236422B2
:101D40000A490B48FFF734FA0328F7D10848C08D39
:101D5000C0F1630084B224B1224604490548FFF76C
:101D6000C4FF63200249C88510BD00005006002052
:101D7000500800204406002070B505460C460DB101
:101D8000012C01DA002070BD4FF6FF732246294670
:101D90000248FFF77CFA0120F5E700005008002018
:101DA00010B54FF4007203490348FFF78EFF00F0AF
:101DB0000BF810BD440400204406002010B5FFF7C6
:101DC000BBFFFFF769FD10BD10B5FFF733FD0849F4
:101DD0000848FEF7B7FA08490848FEF7B3FA084979
:101DE0000848FEF7AFFA08490848FEF7ABFA10BDFD
:101DF0001C000020881E000824000020441E00084B
:101E00002C000020641E000834000020541E00082E
:101E1000000000000000000001020304060708099A
:101E20000000000001020304636D645F64656D6F70
:101E30000076312E312E3030616C70686100726531
:101E4000646F6300BC1E0008981E0008711B000828
:101E500000000000241F0008C41E00089D1B00088D
:101E600001000000501F00082C1F0008491C00083A
:101E700000000000581F0008382000080420000857
:101E80006D1A0008000000006820000840200008CB
:101E9000B91A0008010000007265626F6F743A0D94
:101EA0000A2020202020207265626F6F74207468E1
:101EB00065206370752E0D0A000000007265626F68
:101EC0006F740000746573743A74657374203C63B6
:101ED0006D643E200D0A202020202020202027761F
:101EE000657273696F6E27206C69737420746865FE
:101EF00020736F66747761726520766573696F6EA3
:101F00002E0D0A2020202020202020277265626FBD
:101F10006F7427207265626F6F74206E6F772E0D5D
:101F20000A00000074657374000000007665727327
:101F3000696F6E3A6C6973742074686520736F669C
:101F4000747761726520766573696F6E0D0A0000A3
:101F500076657273696F6E000D0A0000496E636FDB
:101F6000727265637420636F6D6D616E6420706161
:101F700072616D657465722873292E2020456E7418
:101F80006572202268656C702220746F2076696506
:101F9000772061206C697374206F662061766169B7
:101FA0006C61626C6520636F6D6D616E64732E0D84
:101FB0000A0D0A00436F6D6D616E64206E6F7420B0
:101FC0007265636F676E697365642E2020456E7459
:101FD0006572202768656C702720746F20766965AC
:101FE000772061206C697374206F66206176616967
:101FF0006C61626C6520636F6D6D616E64732E0D34
:102000000A0D0A0068656C703A0D0A202020202015
:10201000204C6973747320616C6C20746865207245
:1020200065676973746572656420636F6D6D616E59
:1020300064730D0A0000000068656C700000000009
:102040003F3A3F203C636D643E0D0A202020202053
:1020500020676574206120636F6D6D616E64206818
:10206000656C700D0A0000003F0000008C20000825
:10207000000000204400000034170008D0200008B1
:10208000440000204C10000044170008000000002D
:1020900000A24A04781E000800000000080000208A
:1020A0000000000000000000000000000000000030
:1020B0000000000000000000000000000000000020
:1020C0000000000000000000000000000000000010
:0400000508000131BD
:00000001FF
